:020000040800F2
:10000000C8080020D1010008D9010008DB01000860
:10001000DD010008DF010008E10100080000000028
:10002000000000000000000000000000E3010008E4
:10003000E501000800000000E7010008E9010008F0
:10004000EB010008EB010008EB010008EB010008E0
:10005000EB010008EB0100088B020008EB0100082F
:10006000EB010008EB010008EB010008EB010008C0
:10007000EB010008EB010008EB010008EB010008B0
:10008000EB010008EB010008EB010008EB010008A0
:10009000EB010008EB010008EB010008EB01000890
:1000A000EB010008EB010008EB010008EB01000880
:1000B000EB010008EB010008EB010008EB01000870
:1000C000EB010008EB010008EB010008EB01000860
:1000D000EB010008EB010008EB010008EB01000850
:1000E000EB010008EB010008EB010008EB01000840
:1000F000EB010008EB010008EB010008EB01000830
:10010000EB010008EB010008EB010008EB0100081F
:10011000EB010008EB010008EB010008EB0100080F
:10012000EB010008EB010008EB010008EB010008FF
:1001300000F002F800F03CF80AA090E8000C8244BD
:100140008344AAF10107DA4501D100F031F8AFF29A
:10015000090EBAE80F0013F0010F18BFFB1A43F0A5
:10016000010318470C0800002C080000103A24BFB7
:1001700078C878C1FAD8520724BF30C830C144BF0C
:1001800004680C607047000000230024002500264E
:10019000103A28BF78C1FBD8520728BF30C148BFEA
:1001A0000B6070471FB500F0DDFB1FBD10B510BD23
:1001B00000F031F81146FFF7F5FF00F0BBFA00F050
:1001C0004FF803B4FFF7F2FF03BC00F057F800004C
:1001D0000948804709480047FEE7FEE7FEE7FEE7DB
:1001E000FEE7FEE7FEE7FEE7FEE7FEE70448054917
:1001F000054A064B70470000CD0300083101000896
:10020000C8000020C8080020C8040020C80400203E
:10021000704770477047754600F02CF8AE460500F1
:100220006946534620F00700854618B020B5FFF711
:10023000DDFFBDE820404FF000064FF000074FF013
:1002400000084FF0000B21F00701AC46ACE8C009F4
:10025000ACE8C009ACE8C009ACE8C0098D467047FD
:1002600010B50446AFF300802046BDE81040FFF70C
:10027000A8BF000000487047640000200149182012
:10028000ABBEFEE726000200704710B5012000F06B
:100290008BF910B1002000F0EDF8012000F018F902
:1002A00010BD000010B54FF4C06000F0BDFA00248E
:1002B0001DE02E4901EB0411088800F0B5FA2B4926
:1002C00001EB04118B68294901EB041102224868F3
:1002D000042100F0C9F9254A02EB0412517B234A9C
:1002E00002EB0412107B00F073F9601CC4B2042C02
:1002F000DFD301220021104600F0F0F80122002196
:10030000500300F0EBF801220021900300F0E6F822
:1003100001220021D00300F0E1F8012000F0D8F81C
:100320004FF4005000F0D4F84FF4804000F0D0F8C3
:100330004FF4004000F0CCF800221146062000F0F7
:1003400007FA00220121282000F002FA012000F023
:1003500023F94FF4005000F01FF94FF4804000F0F3
:100360001BF94FF4004000F017F910BD24000020E5
:1003700010B5002424E004EB4401134A32F82100B4
:1003800000F052FA04EB44010F4A02EB81018B6842
:1003900004EB440102EB810102224868102100F0C5
:1003A00063F904EB4402084B03EB8202916804EB0F
:1003B000440203EB8202506800F002F9601CC4B2F0
:1003C000032CD8D310BD00000000002008B526483B
:1003D000006840F47000244908602448006840F038
:1003E00001002249086000BF2048006800F00200B8
:1003F0000028F9D000BF1D48406840F080001B492C
:1004000048600020009002E00098401C0090009896
:100410005028F9D31548406840F0900013494860CF
:100420000020009002E00098401C009000985028A6
:10043000F9D300BF0D48406820F003000B49486025
:10044000084600680A490840084908604FF41F0040
:1004500088600846006820F480200860002048601A
:10046000C86200F07BFA08BD88ED00E00010024091
:10047000FFFFF6FE70B50446032C00D370BD04EBFD
:1004800044020F4B03EB8202916804EB440203EB3E
:100490008202506800F046F90546C5F10100C5B278
:1004A00004EB4402064B03EB8202916804EB440226
:1004B00003EB820250682A4600F084F800BFDDE7B3
:1004C0000000002000BF011EA0F10100FBD1704719
:1004D00001490860704700001404014010B52D4B1D
:1004E0001B6883432B4C2360231D1B688343241DFF
:1004F0002360231D1B688343241D2360231D1B6869
:100500008343241D236011B101290ED105E0214B45
:100510001B6803431F4C236008E01E4B1B1D1B6818
:1005200003431C4C241D236000E000BF00BF32B118
:10053000012A11D0022A1CD0032A27D127E0154B0B
:1005400008331B680343134C08342360231D1B68C6
:100550008343241D23601BE00E4B08331B68834339
:100560000C4C08342360231D1B680343241D2360A7
:100570000EE0084B08331B680343064C0834236025
:10058000231D1B680343241D236001E000BF00BF3F
:1005900000BF10BD00040140024909680143014A3F
:1005A000116070470004014001460448006808409B
:1005B00008B1012070470020FCE70000140401404E
:1005C000416170470AB1016100E04161704700007C
:1005D00010B500228B071C0F0F2303FA04F2042925
:1005E0000EDA204B9B6893431E4CA36023469B6806
:1005F0008C07240F00FA04F423431A4CA3602FE065
:1006000008290EDA174BDB689343164CE360234648
:10061000DB688C07240F00FA04F42343114CE360D9
:100620001EE00C290EDA0F4B1B6993430D4C23611E
:1006300023461B698C07240F00FA04F42343094C5A
:1006400023610DE0074B5B699343064C63612346CE
:100650005B698C07240F00FA04F42343014C6361A7
:1006600010BD000000000140F0B50446164600250C
:10067000002201F00F0501F0100747B1042E05D14B
:1006800045F00305E76B1F43E76300E035430020B7
:100690001EE0012787401F40C7B122684FEA800C47
:1006A0000F2707FA0CF7BA43870005FA07F73A4312
:1006B000282904D1012787401F40676105E04829A8
:1006C00003D1012787401F4027612260471CB8B231
:1006D0000828DED3082022E0012787401F40E7B129
:1006E0006268A0F108074FEA870C0F2707FA0CF79A
:1006F000BA43A0F10807BF0005FA07F73A432829D3
:1007000004D1012787401F40676105E0482903D1D4
:10071000012787401F4027616260471CB8B210283C
:10072000DAD3F0BD02469068084008B10120704756
:100730000020FCE7FFF71CFEFFF7B4FD05E00120F9
:10074000FFF798FE0148FFF7BDFEF8E77F96980097
:100750002DE9F04103460D46164600240027A04629
:100760002A48006800F4E060B0F5E06F03D100BFF4
:100770004FF0040830E02548006800F4E060B0F570
:10078000C06F03D101274FF0030825E01F48006820
:1007900000F4E060B0F5A06F02D10227B8461BE07C
:1007A0001A48006800F4E060B0F5806F03D10327B9
:1007B0004FF0010810E01548006800F4E060B0F563
:1007C000407F03D104274FF0000805E04FF4A060FC
:1007D00000F020F80227B846C7F1040005FA00F43B
:1007E000C8F104010F20C8403040044324010848E8
:1007F000C45403F01F01012088405911890001F100
:10080000E021C1F80001BDE8F08100000CED00E03E
:1008100000E400E002490143024A11607047000011
:100820000000FA050CED00E0064A02EB90110968A1
:1008300000F01F0301229A401143024B03EB901278
:100840001160704700100240002000213F4A1268EA
:1008500042F480323D4B1A6000BF401C3B4A126894
:1008600002F4003119B94FF6FF729042F5D1374AC0
:10087000126802F400320AB900BFFEE7334AD269B7
:1008800042F08052314BDA61314A126842F4404200
:100890002F4B1A602D4A52682C4B5A601A465268E8
:1008A0005A601A46526842F480625A601A46526888
:1008B00022F440325A601A46526842F440325A607A
:1008C0001A465268234B1A40204B5A601A46526807
:1008D000214B1A431D4B5A601A46126842F080722F
:1008E0001A6000BF194A126802F00072002AF9D09B
:1008F000174A126842F48032154B1A6000BF144A3E
:10090000526802F48032002AF9D0114A126842F487
:1009100000320F4B1A6000BF0D4A526802F40032D9
:10092000002AF9D0094A526822F00302074B5A60A4
:100930001A46526842F002025A6000BF034A5268E7
:1009400002F00802002AF9D07047000000100240AF
:1009500000700040FFFFC3B70000340810B5FFF778
:1009600073FF10BD4FF04070E1EE100A70470000B9
:100970009009000800000020640000006C010008DD
:10098000F4090008640000206408000088010008E1
:1009900002060000000801400001000006060000F9
:1009A000001801404000000007060000001C014044
:1009B00040000000020600000008014001000000A5
:1009C0000000000008060000002001400020000098
:1009D0000000000008060000002001400040000068
:1009E0000000000008060000002001400080000018
:0409F0000000000003
:0400000508000131BD
:00000001FF
