:020000040800F2
:10000000680400204901000851010008530100085C
:1000100055010008570100085901000800000000C0
:100020000000000000000000000000005B0100086C
:100030005D010008000000005F0100088D0200085B
:100040006301000863010008630100086301000800
:1000500063010008630100086301000863010008F0
:1000600063010008630100086301000863010008E0
:1000700063010008630100086301000863010008D0
:1000800063010008630100086301000863010008C0
:1000900063010008630100086301000863010008B0
:1000A00063010008630100086301000863010008A0
:1000B0006301000863010008630100086301000890
:1000C0006301000863010008630100086301000880
:1000D000630100089503000863010008630100083C
:1000E0006301000863010008630100086301000860
:1000F0006301000863010008630100086301000850
:10010000630100086301000863010008630100083F
:10011000630100086301000863010008630100082F
:10012000630100086301000863010008630100081F
:10013000DFF810D000F01AF800480047F905000871
:10014000AFF3008068040020064880470648004757
:10015000FEE7FEE7FEE7FEE7FEE7FEE7FEE7FEE777
:10016000FEE7FEE7A502000831010008064C074D36
:1001700006E0E06840F0010394E807009847103477
:10018000AC42F6D3FFF7D8FFE80B0008080C0008D4
:1001900010B502460023002002E0145C6340401CBE
:1001A0008842FAD3184610BD10B50446607818B9D5
:1001B000207800F0CBF802E0207800F0D9F810BDEC
:1001C00010B5002424E004EB4401134A32F8210066
:1001D00000F040FB04EB44010F4A02EB81018B6805
:1001E00004EB440102EB810102224868102100F077
:1001F000A5F904EB4402084B03EB8202916804EB7F
:10020000440203EB8202506800F094F9601CC4B20F
:10021000032CD8D310BD00000000002018490A7834
:100220000978491C164B19701649885419460978E3
:10023000012904D002290DD007291DD115E010494C
:100240000978491E0F4A515C552902D000210C4AF9
:10025000117012E00A490978491E0A4A515CAA291C
:1002600002D00021064A117007E00121064A1170F0
:100270000021034A117000E000BF00BF704700007A
:100280004C000020540000204D000020044803686A
:1002900040685A1C40F1000001490A6048607047FC
:1002A0002800002008B52648006840F47000244962
:1002B00008602448006840F001002249086000BF3F
:1002C0002048006800F002000028F9D000BF1D4857
:1002D000406840F080001B4948600020009002E028
:1002E0000098401C009000985028F9D315484068A9
:1002F00040F09000134948600020009002E0009810
:10030000401C009000985028F9D300BF0D48406869
:1003100020F003000B494860084600680A4908407D
:10032000084908604FF41F0088600846006820F400
:100330008020086000204860C86200F045FB08BDCE
:1003400088ED00E000100240FFFFF6FE10B5044605
:1003500004EB4402054B03EB8202916804EB440278
:1003600003EB8202506800F0E5F810BD00000020A9
:1003700010B5044604EB4402054B03EB820291687E
:1003800004EB440203EB8202506800F0D5F810BD84
:100390000000002010B50A4988680A4900F0DCFB1B
:1003A00068B107498868074900F0CDFB04498868AF
:1003B00000F056FBC4B22046FFF730FF00BF10BD6F
:1003C000300000200503050010B50949888800F0B9
:1003D00041FA07490B6901220868182100F0AEF8BC
:1003E00003494B6901220868042100F0A7F810BDF9
:1003F0003000002010B50446FFF7E6FF204600F06D
:1004000021F810BD10B50D480078012813D1002047
:100410000A49087006210A48FFF7BAFE0849897997
:10042000884200D010BD0648C078062803D1044891
:10043000001DFFF7B9FE00BFF4E700004D000020EB
:100440005400002010B504461B49888900F002FAC8
:100450001949886800F00EFB17498868082100F0E8
:10046000BBFB15498868002100F092FB124988689F
:10047000002100F09FFB10498868214600F0A8FA8F
:100480000D498868082100F09DFB0B49886804210C
:1004900000F086FB0849886840F2053100F046FB11
:1004A0000549087E0022114600F0BCF80249886820
:1004B00000F028FB10BD000030000020014A024976
:1004C00000F013B80D0500085000002002E008C835
:1004D000121F08C1002AFAD170477047002001E0BE
:1004E00001C1121F002AFBD170472DE9F0411646C9
:1004F0000F460446002503E03946B047641C6D1CD6
:1005000020780028F8D12846BDE8F08170B504466F
:100510000D46E1B2064A906800F0A7FA00BF044910
:100520008868072100F0F3FA0028F8D0204670BD53
:10053000300000204161704701617047F0B504460A
:1005400016460025002201F00F0501F0100747B103
:10055000042E05D145F00305E76B1F43E76300E078
:10056000354300201EE0012787401F40C7B12268A5
:100570004FEA800C0F2707FA0CF7BA43870005FAF9
:1005800007F73A43282904D1012787401F406761B4
:1005900005E0482903D1012787401F4027612260D9
:1005A000471CB8B20828DED3082022E00127874084
:1005B0001F40E7B16268A0F108074FEA870C0F27D8
:1005C00007FA0CF7BA43A0F10807BF0005FA07F7CE
:1005D0003A43282904D1012787401F40676105E07D
:1005E000482903D1012787401F4027616260471CCB
:1005F000B8B21028DAD3F0BDFFF7E2FD4FF4E130D6
:10060000FFF7F8FE03A0FFF759FF01E0FFF7FAFE3E
:10061000FCE70000546869732069732061207465E9
:1006200073742E002DE9F04103460D461646002452
:100630000027A0462A48006800F4E060B0F5E06FAB
:1006400003D100BF4FF0040830E02548006800F4F3
:10065000E060B0F5C06F03D101274FF0030825E03B
:100660001F48006800F4E060B0F5A06F02D10227D7
:10067000B8461BE01A48006800F4E060B0F5806FEF
:1006800003D103274FF0010810E01548006800F47B
:10069000E060B0F5407F03D104274FF0000805E08B
:1006A0004FF4A06000F020F80227B846C7F104001C
:1006B00005FA00F4C8F104010F20C840304004439B
:1006C00024010848C45403F01F0101208840591137
:1006D000890001F1E021C1F80001BDE8F0810000CE
:1006E0000CED00E000E400E002490143024A116021
:1006F000704700000000FA050CED00E02DE9F04F16
:100700008CB0074600200A904AA090E8004CC068D0
:10071000CDE905BECDF810A007900FF21C1ADAE95A
:10072000000ACDE9020A0FF2101ADAE9000ACDE94F
:10073000000A44484068C0F381000B900B9820B138
:10074000012804D002283FD103E03F4A3EE03E4A60
:100750003CE03C48406800F4803CBCF5803F12D14E
:100760003848C06A00F08048B8F1000F01D1364B1C
:1007700000E0364B3348406800F40039B9F5003FDB
:1007800002D15B0800E0324B2E484068C0F3834141
:100790002C48406800F0006008B141F01001294881
:1007A000406800F0804008B141F020010F2901D2DB
:1007B000891C06E00F2903D33E2901D8491C00E01B
:1007C0003F2103FB01F201E01F4A00BF00BF1D48AB
:1007D0004068C0F3031504A8465D22FA06F41948E0
:1007E0004068C0F3022502A8465D24FA06F009908D
:1007F00014484068C0F3C2251DF8056024FA06F0CD
:10080000089037B1012F06D0022F06D0032F0AD14E
:1008100006E00A9208E00A9406E009980A9003E0CC
:1008200008980A9000E000BF00BF0A980CB0BDE82D
:10083000F08F00000000000000000000010203042F
:10084000060708090010024000127A00006CDC0262
:1008500000093D00064A02EB9011096800F01F03F1
:1008600001229A401143024B03EB90121160704732
:1008700000100240064A02EB9011096800F01F03C5
:1008800001229A409143024B03EB90121160704792
:1008900000100240064A02EB9011096800F01F03A5
:1008A00001229A401143024B03EB901211607047F2
:1008B00000100240002000213F4A126842F48032BA
:1008C0003D4B1A6000BF401C3B4A126802F40031E5
:1008D00019B94FF6FF729042F5D1374A126802F407
:1008E00000320AB900BFFEE7334AD26942F08052B3
:1008F000314BDA61314A126842F440422F4B1A60A0
:100900002D4A52682C4B5A601A4652685A601A4651
:10091000526842F480625A601A46526822F44032A9
:100920005A601A46526842F440325A601A46526877
:10093000234B1A40204B5A601A465268214B1A43E7
:100940001D4B5A601A46126842F080721A6000BF4E
:10095000194A126802F00072002AF9D0174A126888
:1009600042F48032154B1A6000BF144A526802F4F8
:100970008032002AF9D0114A126842F400320F4B3B
:100980001A6000BF0D4A526802F40032002AF9D002
:10099000094A526822F00302074B5A601A4652680D
:1009A00042F002025A6000BF034A526802F0080295
:1009B000002AF9D07047000000100240007000408B
:1009C000FFFFC3B70000340810B5FFF773FF10BD79
:1009D0002DE9F04704460D460027B846B9460026E3
:1009E0001D49601A8C421CD006DC1C48204470B1A2
:1009F000B0F5806F1FD10FE0B0F5806F16D0B0F565
:100A00006C4F18D10320FFF779FE074614E002204F
:100A1000FFF774FE07460FE00220FFF76FFE074660
:100A20000AE00220FFF76AFE074605E00220FFF712
:100A300065FE074600E000BF00BF07EB5500B0FBB6
:100A4000F5F64FF6F07006EA000806F00F0948EADE
:100A50000900A060BDE8F087004C004000BCFFBF6B
:100A600001464868C0F308007047C1F308024260BD
:100A70007047000010B504462049601A8C4228D007
:100A800006DC1F48204490B1B0F5806F33D117E0E9
:100A9000B0F5806F26D0B0F56C4F2CD140F20E30FF
:100AA000FFF7F8FE40F20E30FFF7E4FE24E040F2DC
:100AB0001140FFF7EFFE40F21140FFF7DBFE1BE0B5
:100AC00040F21240FFF7E6FE40F21240FFF7D2FE7E
:100AD00012E040F21340FFF7DDFE40F21340FFF753
:100AE000C9FE09E040F21440FFF7D4FE40F2144082
:100AF000FFF7C0FE00E000BF00BF10BD004C00408B
:100B000000BCFFBFC16841F40051C160704710B51F
:100B1000024602EB9110006801F01F040123A3407C
:100B2000184008B1012010BD0020FCE710B500EB13
:100B30009112126801F01F040123A3401A4300EB35
:100B400091131A6010BDC1F3044301229A40D243AD
:100B500000EB91531A60704770B5024600230024E1
:100B6000C1F38910105801F01F060125B54000EAB5
:100B7000050302EB91500068C1F304460125B5401E
:100B800000EA050414B10BB1012070BD0020FCE7A0
:100B9000C26822F4C062C260C2680A43C260704781
:100BA000C26822F00402C260C26801F004031A4362
:100BB000C2607047026922F44052026102690A432E
:100BC00002617047C26822F00802C260C26801F088
:100BD00008031A43C2607047C26822F48052C260A0
:100BE000C2680A43C2607047080C00080000002079
:100BF00054000000CC0400085C0C000854000020E5
:100C000014040000DC040008020600000008014093
:100C1000000100000606000000180140400000002E
:100C200007060000001C014040000000000000001A
:100C30000000000000000000000801400206000063
:100C4000003801400E060000000200000004000011
:0C0C500025000000000000000000000073
:0400000508000131BD
:00000001FF
