:020000040800F2
:10000000B80400204901000851010008530100080C
:1000100055010008570100085901000800000000C0
:100020000000000000000000000000005B0100086C
:100030005D010008000000005F01000845040008A1
:100040006301000863010008630100086301000800
:1000500063010008630100086301000863010008F0
:1000600063010008630100086301000863010008E0
:1000700063010008630100086301000863010008D0
:1000800063010008630100086301000863010008C0
:1000900063010008630100086301000863010008B0
:1000A00063010008630100086301000863010008A0
:1000B0006301000863010008630100086301000890
:1000C0006301000863010008630100086301000880
:1000D000630100084D050008630100086301000882
:1000E0006301000863010008630100086301000860
:1000F0006301000863010008630100086301000850
:10010000630100086301000863010008630100083F
:10011000630100086301000863010008630100082F
:10012000630100086301000863010008630100081F
:10013000DFF810D000F05EF800480047B10C00086E
:10014000AFF30080B8040020064880470648004707
:10015000FEE7FEE7FEE7FEE7FEE7FEE7FEE7FEE777
:10016000FEE7FEE75D04000831010008D2B201E0BD
:1001700000F8012B491EFBD270470022F6E710B5AC
:1001800013460A4604461946FFF7F0FF204610BD05
:100190002DE9F05F0546002092469B4688460646BC
:1001A000814640241BE0284641464746224600F04F
:1001B00042F853465A46C01A914110D31146184688
:1001C000224600F029F82D1A67EB01084F46224617
:1001D0000120002100F020F817EB00094E41201EFD
:1001E000A4F10104DFDC484631462A464346BDE817
:1001F000F09F0000064C074D06E0E06840F0010368
:1002000094E8070098471034AC42F6D3FFF794FF08
:10021000AC120008CC120008202A04DB203A00FAB5
:1002200002F1002070479140C2F1200320FA03F34D
:10023000194390407047202A04DB203A21FA02F04B
:100240000021704721FA02F3D040C2F12002914010
:1002500008431946704710B500F096F910BD10B567
:1002600002460023002002E0145C6340401C8842E8
:10027000FAD3184610BD10B50446607818B9207836
:1002800000F040F902E0207800F04EF910BD10B502
:10029000024612B109B1D06808B9012010BDD2E9F7
:1002A0000003984201D10320F8E71368D068C05CCE
:1002B00008701068401C9368B0FBF3F403FB140053
:1002C00010600020EAE700000C48006820F0807011
:1002D0000A4908600846006840F0807008600848D5
:1002E000006820F00100064908600846006840F0F8
:1002F000010008600020486070470000FCED00E04D
:10030000001000E070B50446002504E04FF47A7058
:1003100000F004F86D1CA542F8D370BD70B504461A
:1003200007484568012000F045FD0649B0FBF1F0A3
:10033000444300BF02484068401BA042FAD370BD4E
:10034000001000E040420F0010B500F03DF84FF4FF
:10035000E13000F03FF9FFF7B7FF10BD10B50246DE
:100360000AB1D06808B9012010BD5068401C9368DC
:10037000B0FBF3F403FB14001368984201D1022090
:10038000F2E75368D068C1545068401C9368B0FBD2
:10039000F3F403FB140050600020E5E7F0B50746D6
:1003A0000D46164607B10DB90020F0BD002407E048
:1003B00029193846FFF76BFF08B12046F5E7641CA2
:1003C000B442F5D33046F0E710B5002424E004EB46
:1003D0004401134A32F8210000F098FD04EB440177
:1003E0000F4A02EB81018B6804EB440102EB8101AF
:1003F00002224868102100F0FDFB04EB4402084B88
:1004000003EB8202916804EB440203EB8202506822
:1004100000F0ECFB601CC4B2032CD8D310BD00006C
:100420000000002010B5044621460248FFF796FF61
:1004300010BD0000A4000020002303604360C160E1
:10044000826070470448036840685A1C40F100000D
:1004500001490A60486070472800002008B5264816
:10046000006840F47000244908602448006840F0A7
:1004700001002249086000BF2048006800F0020027
:100480000028F9D000BF1D48406840F080001B499B
:1004900048600020009002E00098401C0090009806
:1004A0005028F9D31548406840F09000134948603F
:1004B0000020009002E00098401C00900098502816
:1004C000F9D300BF0D48406820F003000B49486095
:1004D000084600680A490840084908604FF41F00B0
:1004E00088600846006820F480200860002048608A
:1004F000C86200F0CBFD08BD88ED00E000100240AE
:10050000FFFFF6FE10B5044604EB4402054B03EB77
:100510008202916804EB440203EB8202506800F00F
:1005200065FB10BD0000002010B5044604EB44023A
:10053000054B03EB8202916804EB440203EB820259
:10054000506800F055FB10BD0000002010B50B49AD
:1005500088680B4900F062FE70B108498868084954
:1005600000F053FE0549886800F0DCFDC4B2204667
:1005700004490968884700BF10BD00003000002012
:10058000050305004C00002010B5044800F0EEFC07
:100590004D2203490348FFF74FFF10BD2504000813
:1005A00054000020A400002010B50949888800F0FC
:1005B000ADFC07490B6901220868182100F01AFBFD
:1005C00003494B6901220868042100F013FB10BDA8
:1005D0003000002010B50446FFF7E6FF204600F08B
:1005E00069F810BD10B594B050216846FFF7C5FDFD
:1005F00050E09DF80000552800D04BE00DF10101BE
:100600002848FFF744FE032803D09DF80100AA28DC
:1006100000D03FE00DF102012248FFF738FE032829
:1006200003D09DF80200072800DD33E09DF80200AA
:10063000421C0DF103011B48FFF7B0FE9DF80210AC
:10064000491C884200D025E09DF80200C11C684684
:10065000FFF705FE9DF80210C91C1DF80110884225
:1006600000D017E09DF80300062802D101A8FFF78B
:1006700002FE002405E01DF804100BA000F056F85F
:10068000641C9DF80200001DA042F4D808A000F0F0
:100690004DF800BF69460348FFF7F9FD0028A8D0D0
:1006A00014B010BDA40000202530327800000000F6
:1006B0000A00000010B504461B49888900F026FC9A
:1006C0001949886800F038FD17498868082100F04A
:1006D000E5FD15498868002100F0BCFD12498868D5
:1006E000002100F0C9FD10498868214600F0D2FCC5
:1006F0000D498868082100F0C7FD0B49886804216E
:1007000000F0B0FD0849886840F2053100F070FD46
:100710000549087E0022114600F0E0FA0249886887
:1007200000F052FD10BD0000300000200FB4054B5A
:1007300010B503A9044A029800F018F810BC5DF83F
:1007400014FB0000C50B00085000002002E008C8A0
:10075000121F08C1002AFAD170477047002001E03B
:1007600001C1121F002AFBD1704700002DE9FF4F85
:100770008DB00F460546002606E025280BD0DDE9A2
:100780000F1290476D1C761C28780028F5D111B007
:100790003046BDE8F08F0024A246A1460122E94977
:1007A00000E0044315F8013F203B02FA03F0084241
:1007B000F7D128782A2810D06FF02F022878A0F1DE
:1007C0003001092914D80AEB8A0102EB410144F0F7
:1007D000020400EB010A6D1CF0E701CF5FEA000A9A
:1007E00003D544F40054CAF1000A44F002046D1C1D
:1007F00028782E2817D115F8010F44F004042A2870
:100800000ED06FF02F022878A0F1300109290AD804
:1008100009EB890102EB410100EB01096D1CF2E7D4
:1008200057F8049B6D1C28786C280FD006DC4C28E8
:1008300017D068280DD06A2814D104E0742810D08D
:100840007A280FD10DE044F400140AE044F4801437
:1008500001E044F440146978814202D104F5801427
:100860006D1C6D1C28786E281ED00CDC632830D0DF
:1008700004DC00288BD0582811D19FE0642867D071
:1008800069280CD164E073282DD004DC6F2872D065
:10089000702804D194E075286ED078286DD0DDE9F9
:1008A0000F129047761C4BE1C4F30250022806D089
:1008B000032809D0042801CF09D0066040E101CF08
:1008C000F117C0E900613BE101CF068038E1067015
:1008D00036E117F8040B8DF8000000208DF80100B8
:1008E000EB46012003E057F804BB4FF0FF306107EF
:1008F0004FF0000102D40DE008F10101884649459E
:100900000FDA8045F8DB1BF808100029F4D108E065
:1009100008F1010188468142FADB1BF80810002922
:10092000F6D1DDE90F23AAEB08008146214600F04D
:1009300031F9304400EB080604E0DDE90F121BF842
:10094000010B9047B8F10108F7D221464846F2E082
:100950000A21C4F302524FF0000B0891022A04D07E
:1009600001CFC117032A09D00AE0FF1D27F00707AE
:10097000F7E8020108E02CE01EE01FE000B2C1171A
:10098000042A01D140B2C117021E71F1000206DA39
:100990000023D0EB030063EB01012D2202E02205CE
:1009A00004D52B228DF82420012203E0E20701D098
:1009B0002022F7E7904653E00A210BE0102109E0DE
:1009C00010214FF0000B44F004044FF00809089187
:1009D00003E008214FF0000B0891C4F30252022AF1
:1009E00004D001CF0021032A06D006E0FF1D27F026
:1009F0000707F7E8020103E080B2042A00D1C0B281
:100A00004FF0000822072BD52A78702A07D0DDF88E
:100A100020C08CF0100C5CEA0B0C05D00EE04022DC
:100A20008DF82420012208E050EA010306D030238B
:100A30008DF824308DF8252002229046089B83F003
:100A4000080353EA0B030BD150EA010201D16207FC
:100A500006D530228DF824204FF00108A9F10109B4
:100A60002A78582A04D038A20B9208AA0A920BE0DE
:100A70003AA2F9E75B46089AFFF78AFB0B9B9B5C5F
:100A80000A9A521E0A92137050EA0102F2D10A9891
:100A9000ADEB000000F1200B600702D524F4803498
:100AA00001E04FF00109D94502DDA9EB0B0000E0A0
:100AB000002000EB0B0141440890AAEB010AE0037F
:100AC00006D4DDE90F232146504600F063F80644C2
:100AD0004FF0000908E009A911F80900DDE90F123B
:100AE000904709F10109761CC145F4DBE0030CD500
:100AF000DDE90F232146504600F04CF8064404E09F
:100B0000DDE90F1230209047761C0899481E0890A6
:100B10000029F5DC08E00A980A990078491C0A9136
:100B2000DDE90F129047761CBBF10001ABF1010B20
:100B3000F1DC21465046DDE90F2300F019F80644A8
:100B40006D1C21E609280100303132333435363747
:100B50003839616263646566000000003031323309
:100B600034353637383941424344454600000000A9
:100B70002DE9F041044600251E461746880404D49A
:100B800005E039462020B0476D1C641EF9D5284683
:100B9000BDE8F0812DE9F041044600251E4690464F
:100BA000C80301D5302700E02027880404D505E0DC
:100BB00041463846B0476D1C641EF9D52846BDE84D
:100BC000F081000070B504460D46E1B2064A906817
:100BD00000F0ADFA00BF04498868072100F0F9FA77
:100BE0000028F8D0204670BD3000002041617047D9
:100BF00001617047F0B5044616460025002201F059
:100C00000F0501F0100747B1042E05D145F003058B
:100C1000E76B1F43E76300E0354300201EE0012738
:100C200087401F40C7B122684FEA800C0F2707FAA0
:100C30000CF7BA43870005FA07F73A43282904D18D
:100C4000012787401F40676105E0482903D101273C
:100C500087401F4027612260471CB8B20828DED3B6
:100C6000082022E0012787401F40E7B16268A0F119
:100C700008074FEA870C0F2707FA0CF7BA43A0F1D1
:100C80000807BF0005FA07F73A43282904D10127CE
:100C900087401F40676105E0482903D1012787404D
:100CA0001F4027616260471CB8B21028DAD3F0BD3C
:100CB000FFF74AFBFFF7CFFA04A0FFF737FD04E088
:100CC000FFF790FC0A20FFF71DFBF9E754686973F2
:100CD000206973206120746573742E002DE9F04142
:100CE00003460D46164600240027A0462A48006801
:100CF00000F4E060B0F5E06F03D100BF4FF00408EE
:100D000030E02548006800F4E060B0F5C06F03D122
:100D100001274FF0030825E01F48006800F4E06059
:100D2000B0F5A06F02D10227B8461BE01A48006850
:100D300000F4E060B0F5806F03D103274FF00108A5
:100D400010E01548006800F4E060B0F5407F03D182
:100D500004274FF0000805E04FF4A06000F020F8F1
:100D60000227B846C7F1040005FA00F4C8F10401EF
:100D70000F20C8403040044324010848C45403F005
:100D80001F01012088405911890001F1E021C1F8BB
:100D90000001BDE8F08100000CED00E000E400E09F
:100DA00002490143024A1160704700000000FA0541
:100DB0000CED00E02DE9F04F8CB0074600200A90C2
:100DC0004AA090E8004CC068CDE905BECDF810A05F
:100DD00007900FF21C1ADAE9000ACDE9020A0FF2B5
:100DE000101ADAE9000ACDE9000A44484068C0F365
:100DF00081000B900B9820B1012804D002283FD12C
:100E000003E03F4A3EE03E4A3CE03C48406800F494
:100E1000803CBCF5803F12D13848C06A00F0804861
:100E2000B8F1000F01D1364B00E0364B3348406833
:100E300000F40039B9F5003F02D15B0800E0324B05
:100E40002E484068C0F383412C48406800F00060A1
:100E500008B141F010012948406800F0804008B115
:100E600041F020010F2901D2891C06E00F2903D38C
:100E70003E2901D8491C00E03F2103FB01F201E0BB
:100E80001F4A00BF00BF1D484068C0F3031504A8F7
:100E9000465D22FA06F419484068C0F3022502A80C
:100EA000465D24FA06F0099014484068C0F3C22554
:100EB0001DF8056024FA06F0089037B1012F06D01E
:100EC000022F06D0032F0AD106E00A9208E00A9406
:100ED00006E009980A9003E008980A9000E000BF35
:100EE00000BF0A980CB0BDE8F08F000000000000C1
:100EF0000000000001020304060708090010024078
:100F000000127A00006CDC0200093D00064A02EB88
:100F10009011096800F01F0301229A401143024B0F
:100F200003EB90121160704700100240064A02EB7A
:100F30009011096800F01F0301229A409143024B6F
:100F400003EB90121160704700100240064A02EB5A
:100F50009011096800F01F0301229A401143024BCF
:100F600003EB9012116070470010024001490860C5
:100F7000704700004C000020002000213F4A12680A
:100F800042F480323D4B1A6000BF401C3B4A12685D
:100F900002F4003119B94FF6FF729042F5D1374A89
:100FA000126802F400320AB900BFFEE7334AD26980
:100FB00042F08052314BDA61314A126842F44042C9
:100FC0002F4B1A602D4A52682C4B5A601A465268B1
:100FD0005A601A46526842F480625A601A46526851
:100FE00022F440325A601A46526842F440325A6043
:100FF0001A465268234B1A40204B5A601A465268D0
:10100000214B1A431D4B5A601A46126842F08072F7
:101010001A6000BF194A126802F00072002AF9D063
:10102000174A126842F48032154B1A6000BF144A06
:10103000526802F48032002AF9D0114A126842F450
:1010400000320F4B1A6000BF0D4A526802F40032A2
:10105000002AF9D0094A526822F00302074B5A606D
:101060001A46526842F002025A6000BF034A5268B0
:1010700002F00802002AF9D0704700000010024078
:1010800000700040FFFFC3B70000340810B5FFF741
:1010900073FF10BD2DE9F04704460D460027B84602
:1010A000B94600261D49601A8C421CD006DC1C483B
:1010B000204470B1B0F5806F1FD10FE0B0F5806FA4
:1010C00016D0B0F56C4F18D10320FFF773FE07461A
:1010D00014E00220FFF76EFE07460FE00220FFF744
:1010E00069FE07460AE00220FFF764FE074605E0B6
:1010F0000220FFF75FFE074600E000BF00BF07EBDE
:101100005500B0FBF5F64FF6F07006EA000806F061
:101110000F0948EA0900A060BDE8F087004C0040D4
:1011200000BCFFBF01464868C0F308007047C1F328
:10113000080242607047000010B504462049601A5A
:101140008C4228D006DC1F48204490B1B0F5806F57
:1011500033D117E0B0F5806F26D0B0F56C4F2CD1AD
:1011600040F20E30FFF7F2FE40F20E30FFF7DEFEE7
:1011700024E040F21140FFF7E9FE40F21140FFF792
:10118000D5FE1BE040F21240FFF7E0FE40F21240B5
:10119000FFF7CCFE12E040F21340FFF7D7FE40F21B
:1011A0001340FFF7C3FE09E040F21440FFF7CEFE04
:1011B00040F21440FFF7BAFE00E000BF00BF10BDD0
:1011C000004C004000BCFFBFC16841F40051C16049
:1011D000704710B5024602EB9110006801F01F0441
:1011E0000123A340184008B1012010BD0020FCE7F6
:1011F00010B500EB9112126801F01F040123A34007
:101200001A4300EB91131A6010BDC1F3044301228D
:101210009A40D24300EB91531A60704770B5024672
:1012200000230024C1F38910105801F01F06012586
:10123000B54000EA050302EB91500068C1F3044693
:101240000125B54000EA050414B10BB1012070BDC1
:101250000020FCE7C26822F4C062C260C2680A4390
:10126000C2607047C26822F00402C260C26801F026
:1012700004031A43C2607047026922F440520261BB
:1012800002690A4302617047C26822F00802C26024
:10129000C26801F008031A43C2607047C26822F4B2
:1012A0008052C260C2680A43C2607047CC12000814
:1012B00000000020540000004C0700082013000824
:1012C00054000020640400005C07000802060000CF
:1012D000000801400001000006060000001801405F
:1012E0004000000007060000001C01404000000014
:1012F00000000000000000000000000000080140A5
:1013000002060000003801400E0600000002000046
:1013100000040000250000000000000000000000A4
:0400000508000131BD
:00000001FF
